:100C1E00C104C105C106C107C188C101C100C1021D
:0A0C2E00C10302080000020A0000E2
:10080000120BF32008FD200103020942E5096450A0
:100810004508700C200209F50C750D02D202804FBC
:10082000E509643C4508700C200209F50C750D9E25
:10083000D202803BE50964284508700C200209F5C6
:100840000C750D24D2028027E50964144508700C4C
:10085000200209F50C750D0CD2028013E50945083C
:10086000700D20020A300107F50C750D98D202E5D3
:100870000B6412450A700D20030AF50E750F03D2A2
:1008800003020939E50B6410450A700D20030AF5CF
:100890000E750F9FD203020939E50B640E450A70ED
:1008A0000D20030AF50E750F25D203020939E50B59
:1008B000640C450A700C200309F50E750F0DD20368
:1008C0008077E50B640A450A700C200309F50E7564
:1008D0000F99D2038063E50B6408450A700C20036E
:1008E00009F50E750F49D203804FE50B6406450AE2
:1008F000700C200309F50E750F41D203803BE50B08
:100900006404450A700C200309F50E750F1FD2030D
:100910008027E50B6402450A700C200309F50E756B
:100920000F01D2038013E50B450A700D20030A3036
:100930000107F50E750F09D20320020330030312DD
:100940000C39200003020803E50964284508700EED
:1009500020020B120C39E4F508F509020803E50939
:1009600064144508600302080330020302080330E0
:1009700004087D11FC7FFCFE802530050A7DC17CCA
:10098000007FFC7E00801830060A7D637C007FFCBF
:100990007E00800B30070E7D857C007FFC7E001280
:1009A0000C410208037DFD7C007FFC7E00120C419F
:0309B00002080337
:100BF300D2AFD2A9D2ABD2A8D2AA758900438911A8
:100C0300758C3C758AB0758D3C758BB0D288D28A51
:0B0C13007D037C007F487E00020C4146
:03000B00020ACB1B
:100ACB00C0E0C0F0C0D075D000C000C004C005C0ED
:100ADB0006C007758C3C758AB00509E509700205DF
:100AEB0008AE08FF7C007D14120B34ED4C7002C273
:100AFB0002C3E5099464E5089400401C20081930F2
:100B0B000116750800750900C201D200750C00753D
:100B1B000D02750E00750F03D007D006D005D0045B
:090B2B00D000D0D0D0F0D0E032AF
:03001B00020BC60F
:100BC600C0E0C0D0758D3C758BB0050BE50B70028F
:100BD600050A20E002C203C3E50B9414E50A94005B
:0D0BE6004006750A00750B00D0D0D0E0323B
:030003000209B33C
:1009B300C0E0C0F0C083C082C0D075D000C000C00A
:1009C30001C002C003C004C005C006C0073008232D
:1009D300200020C208D201D28CD28E758C3C758A3D
:1009E300B0758D3C758BB0750800750900750A00EC
:1009F300750B0030002BC200D208C204C205C20628
:100A0300C207750800750900750A00750B00750C9F
:100A130000750D48750E00750F03120C39C28CC298
:100A23008ED007D006D005D004D003D002D001D099
:0C0A330000D0D0D082D083D0F0D0E032D0
:03001300020B8954
:100B8900C0D0200835200032A2B4B35004D204806A
:100B990019A2B5B35004D2058010A2B6B35004D23D
:100BA900068007A2B7B35006D207C201D200750862
:0D0BB90000750900750A00750B00D0D032E0
:080C3900AD0FAC0EAF0DAE0CC7
:050C41008F908DA02240
:03000000020A3FB2
:0C0A3F00787FE4F6D8FD758121020A865C
:100B3400BC000BBE0029EF8DF084FFADF022E4CCA5
:100B4400F875F008EF2FFFEE33FEEC33FCEE9DEC6E
:100B5400984005FCEE9DFE0FD5F0E9E4CEFD22EDB4
:100B6400F8F5F0EE8420D21CFEADF075F008EF2FFE
:100B7400FFED33FD4007985006D5F0F222C398FDEF
:050B84000FD5F0EA228C
:100A4B00020800E493A3F8E493A34003F68001F2B9
:100A5B0008DFF48029E493A3F85407240CC8C333AC
:100A6B00C4540F4420C8834004F456800146F6DF7B
:100A7B00E4800B0102040810204080900C1EE47EE1
:100A8B00019360BCA3FF543F30E509541FFEE49370
:100A9B00A360010ECF54C025E060A840B8E493A337
:100AAB00FAE493A3F8E493A3C8C582C8CAC583CA62
:100ABB00F0A3C8C582C8CAC583CADFE9DEE780BE1A
:010C380000BB
:00000001FF
