:100BD700C104C105C106C107C188C101C100C10265
:0A0BE700C10302080000020A00002A
:10080000120BB02008FD200103020923E509645002
:100810004508700A200207750C40D2028047E5099E
:10082000643C4508700A200207750C79D2028035B5
:10083000E50964284508700A200207750C24D202D5
:100840008023E50964144508700A200207750C30FE
:10085000D2028011E5094508700B2002083001051D
:10086000750C19D202E50B6412450A700B200308BF
:10087000750DC0D20302091AE50B6410450A700B0E
:10088000200308750DF9D20302091AE50B640E4521
:100890000A700A200307750DA4D203807DE50B645E
:1008A0000C450A700A200307750DB0D203806BE572
:1008B0000B640A450A700A200307750D99D203805C
:1008C00059E50B6408450A700A200307750D92D29A
:1008D000038047E50B6406450A700A200307750D7F
:1008E00082D2038035E50B6404450A700A200307B1
:1008F000750DF8D2038023E50B6402450A700A20C7
:100900000307750D80D2038011E50B450A700B209B
:100910000308300105750D90D20320030330030353
:10092000120BF2200003020803E509642845087051
:100930000E20030B120BF2E4F508F509020803E59B
:100940000964144508600302080330030302080326
:100950003004047D8880133005047D83800C3006CC
:10096000047DC6800530070A7DA17F3F120BF60289
:0C09700008037DBF7F3F120BF602080356
:100BB000D2AFD2A9D2ABD2A8D2AA758900438911EB
:100BC000758C3C758AB0758D3C758BB0D288D28A95
:070BD0007DC07F12020BF64D
:03000B00020A8E58
:100A8E00C0E0C0F0C0D075D000C000C004C005C02A
:100A9E0006C007758C3C758AB00509E5097002051C
:100AAE0008AE08FF7C007D14120AF1ED4C7002C2F4
:100ABE0002C3E5099464E50894004016200813303B
:100ACE000110750800750900C201D200750C407541
:100ADE000DC0D007D006D005D004D000D0D0D0F0B5
:030AEE00D0E03223
:03001B00020B8352
:100B8300C0E0C0D0758D3C758BB0050BE50B7002D2
:100B9300050A20E002C203C3E50B9414E50A94009E
:0D0BA3004006750A00750B00D0D0D0E0327E
:03000300020A08E6
:100A0800C0E0C0F0C083C082C0D075D000C000C0B4
:100A180001C002C003C004C005C006C007300823D7
:100A2800200020C208D201D28CD28E758C3C758AE7
:100A3800B0758D3C758BB0750800750900750A0096
:100A4800750B00300025C200D208C204C205C206D8
:100A5800C207750800750900750A00750B00750C4A
:100A680012750DC0120BF2C28CC28ED007D006D000
:100A780005D004D003D002D001D000D0D0D082D08D
:060A880083D0F0D0E03243
:03001300020B4697
:100B4600C0D0200835200032A2B4B35004D20480AD
:100B560019A2B5B35004D2058010A2B6B35004D280
:100B6600068007A2B7B35006D207C201D2007508A5
:0D0B760000750900750A00750B00D0D03223
:040BF200AD0DAF0C8A
:050BF6008F908DA0228C
:0300000002097C76
:0C097C00787FE4F6D8FD7581210209C3E4
:100AF100BC000BBE0029EF8DF084FFADF022E4CCE9
:100B0100F875F008EF2FFFEE33FEEC33FCEE9DECB1
:100B1100984005FCEE9DFE0FD5F0E9E4CEFD22EDF7
:100B2100F8F5F0EE8420D21CFEADF075F008EF2F41
:100B3100FFED33FD4007985006D5F0F222C398FD32
:050B41000FD5F0EA22CF
:10098800020800E493A3F8E493A34003F68001F27D
:1009980008DFF48029E493A3F85407240CC8C33370
:1009A800C4540F4420C8834004F456800146F6DF3F
:1009B800E4800B0102040810204080900BD7E47EED
:1009C800019360BCA3FF543F30E509541FFEE49334
:1009D800A360010ECF54C025E060A840B8E493A3FB
:1009E800FAE493A3F8E493A3C8C582C8CAC583CA26
:1009F800F0A3C8C582C8CAC583CADFE9DEE780BEDE
:010BF1000003
:00000001FF
