:100A0700C106C101C102C103C104C185C1000208F9
:0A0A17000000020A0000020C0000BB
:080800001209ECA205B350FB44
:100808003000F8C3E5099450E508648094804005F9
:10081800750E028042C3E509943CE5086480948023
:100828004005750E9E8030C3E5099428E50864806C
:1008380094804005750E24801EC3E5099414E508CC
:10084800648094804005750E0C800CC3E5086480B4
:1008580094804003750E98C3E50B9412E50A6480F2
:1008680094804006750F0302090FC3E50B9410E549
:100878000A648094804006750F9F02090FC3E50B38
:10088800940EE50A648094804005750F258078C32E
:10089800E50B940CE50A648094804005750F0D8083
:1008A80066C3E50B940AE50A648094804005750FD9
:1008B800998054C3E50B9408E50A64809480400548
:1008C800750F498042C3E50B9406E50A648094805D
:1008D8004005750F418030C3E50B9404E50A648038
:1008E80094804005750F1F801EC3E50B9402E50A2E
:1008F800648094804005750F01800CC3E50A64800C
:0E09080094804003750F09AD0FAF0E120A2A3E
:03091600020803D1
:1009EC00D2AFD2A9D2A85389F0438901758C3C753A
:0B09FC008AB0D2887D037F48020A2ADF
:03000B000209A542
:1009A500C0E0C0D0758C3C758AB00509E5097002B8
:1009B5000508050BE50B7002050AD200C3E509948D
:1009C50064E508648094804006750800750900C3D5
:1009D500E5099414E508648094804006750A00755D
:0709E5000B00D0D0D0E0327E
:03000300020A22CC
:080A2200300504B205D28C324C
:070A2A00C2008F908DA02295
:03000000020919D9
:0C091900787FE4F6D8FD758120020960AB
:10092500020800E493A3F8E493A34003F68001F2E0
:1009350008DFF48029E493A3F85407240CC8C333D3
:10094500C4540F4420C8834004F456800146F6DFA2
:10095500E4800B0102040810204080900A07E47E21
:10096500019360BCA3FF543F30E509541FFEE49397
:10097500A360010ECF54C025E060A840B8E493A35E
:10098500FAE493A3F8E493A3C8C582C8CAC583CA89
:10099500F0A3C8C582C8CAC583CADFE9DEE780BE41
:010A210000D4
:00000001FF
